:100000000C94F3000C9412010C9412010C94120144
:100010000C9412010C9412010C9412010C94120114
:100020000C9412010C9412010C9412010C94120104
:100030000C9412010C9412010C9412010C941201F4
:100040000C94AB030C9412010C9412010C94120149
:100050000C9412010C9412010C9412010C941201D4
:100060000C9412010C9412010C9412010C941201C4
:100070000C9412010C9412010C9412010C941201B4
:100080000C9412010C9412010C941201496D7054DD
:100090006F6B0909496D7072696D65206C6F732013
:1000A000746F6B656E7320656E766961646F732023
:1000B0006120496D70546F6B0A003F20090909499E
:1000C0006D7072696D652065737461206179756406
:1000D000610A0A005061726120090944657469650A
:1000E0006E6520656C206D6F746F720A00476972CF
:1000F000614465722009094769726120656C206D51
:100100006F746F72206861636961206C612064653F
:1001100072656368610A0047697261497A712009F2
:10012000094769726120656C206D6F746F72206879
:1001300061636961206C6120697A717569657264B7
:10014000610A006665636861200909446573706C23
:1001500069656761206C612066656368610A006893
:100160006F7261200909446573706C69656761206D
:100170006C6120686F72610A006170616720090913
:10018000417061676120746F646F73206C6F7320BE
:100190006C6564732064656C2070756572746F2083
:1001A000430A00656E632028617267732920094540
:1001B0006E6369656E6465206C6564732070756537
:1001C00072746F204320636F6E206C6F73206172B6
:1001D00067756D656E746F730A00436F6D616E6451
:1001E0006F733A0A200011241FBECFEFD0E1DEBFAB
:1001F000CDBF11E0A0E0B1E0ECE3F3E100E00BBF24
:1002000002C007900D92A43AB107D9F712E0A4EA10
:10021000B1E001C01D92A532B107E1F70E9476035B
:100220000C949C090C940000982FD998662311F027
:10023000D89A01C0D8988BB39295907F8F70892BF4
:100240008BBBDA9A81E08A95F1F7DA9808950F93DB
:100250001F93182F062F82958F700E941401812FF3
:100260008F70602F0E9414011F910F910895D99AE9
:100270009AB39F709ABB882311F0D89A01C0D8987E
:10028000DA9A81E08A95F1F789B3DA989AB3906F98
:100290009ABBD99882958F7008950F931F93182F4A
:1002A0000E943701082F0295007F812F0E9437019D
:1002B000802B1F910F91089580E00E944D0187FDD2
:1002C000FBCF0895D09AD19AD29A8AB3806F8ABB15
:1002D00080E092EA0197F1F783E060E00E94140168
:1002E00087E49CE20197F1F783E060E00E9414014B
:1002F00084E191E00197F1F783E060E00E9414014E
:1003000088E88A95F1F782E060E00E94140180E0BD
:100310000E945C0188E260E00E94270180E00E9468
:100320005C0188E060E00E94270180E00E945C019F
:1003300008958BB38F708BBBD898D998DA980895AD
:100340008FEF85BB089500D08AED91E0EDB7FEB741
:10035000928381830E945C0683EA91E0EDB7FEB749
:10036000928381830E945C0689E791E0EDB7FEB736
:10037000928381830E945C068FE591E0EDB7FEB722
:10038000928381830E945C0683E491E0EDB7FEB71F
:10039000928381830E945C0687E191E0EDB7FEB70E
:1003A000928381830E945C068DEE90E0EDB7FEB7EC
:1003B000928381830E945C0684ED90E0EDB7FEB7E6
:1003C000928381830E945C068AEB90E0EDB7FEB7D2
:1003D000928381830E945C068CE890E0EDB7FEB7C3
:1003E000928381830E945C060F900F9008950F9373
:1003F0001F93CF93DF93FC0180819181892B61F161
:10040000C0E6D0E000E011E088812DB73EB728506B
:1004100030400FB6F8943EBF0FBE2DBFEDB7FEB70C
:100420003196ADB7BEB712961C930E931197D38336
:10043000C28384831582868317820E944A0621968E
:100440002DB73EB7285F3F4F0FB6F8943EBF0FBEA3
:100450002DBFC037D105C1F6DF91CF911F910F910C
:100460000895CF93DF93FC0180819181892B41F026
:10047000EF0102C00E947F06899199910097D1F700
:10048000DF91CF910895FC01808191810E948E05BA
:10049000809585BB08950F931F93CF93DF93EC0155
:1004A0008B016AE071E00E94B105009721F4C80158
:1004B0000E9443025EC0CE016EE071E00E94B10571
:1004C000009719F48FEF85BB54C0CE0163E171E052
:1004D0000E94B105009719F40E9485044AC0CE011C
:1004E00068E171E00E94B105009719F40E94590477
:1004F00040C0CE016EE171E00E94B105009719F491
:100500000E94980336C0CE0166E271E00E94B105F8
:10051000009719F40E949A032CC0CE016EE271E09C
:100520000E94B105009719F40E949E0322C0CE01DB
:1005300063E371E00E94B105009719F40E94A301E2
:1005400018C0CE0165E371E00E94B105009739F44F
:10055000CE010E947F06C8010E9431020AC0CE016E
:100560006CE371E00E94B105009719F4C8010E9484
:10057000F70180E0DF91CF911F910F910895CF9205
:10058000DF92EF92FF920F931F93DF93CF93CDB73C
:10059000DEB72C970FB6F894DEBF0FBECDBF6C014F
:1005A00060E471E00E94AC05892B11F481E025C064
:1005B0007E010894E11CF11C00E010E009C0F70185
:1005C000819391937F010F5F1F4F0530110541F01B
:1005D00080E090E060E471E00E94AC05009779F75C
:1005E000000F111FBE016F5F7F4F060F171FF8012D
:1005F00011821082C6010E944B022C960FB6F8940D
:10060000DEBF0FBECDBFCF91DF911F910F91FF9045
:10061000EF90DF90CF900895CF93DF93C6E4D1E0C1
:1006200000D0EDB7FEB7D283C1830E944A060F9077
:100630000F908FEF91E00E9425068FEF91E00E94CE
:10064000BF02EECF1F93182F8091A501882399F048
:100650001A3099F08091A4018823F9F481E00E9476
:100660005C0181E060E00E94270181E00E945C0162
:100670001092A50112C01A3081F48091A401882340
:1006800031F481E08093A40180EC60E008C081E057
:100690008093A5011092A40107C0812F61E00E9400
:1006A000270181E00E945C0180E090E01F910895A5
:1006B0000E94620181E060E00E94270181E00E94C7
:1006C0005C0186E060E00E94270181E00E945C01FD
:1006D0008EE060E00E94270181E00E945C010895A5
:1006E0008FEF81BB82BB84BB85BB08958BE491E017
:1006F0009093200280931F02909322028093210204
:1007000089E591E090932402809323020E94AF0434
:100710000E9458030E94A0030E9495030E94700348
:100720000E940C0380E090E00895109A18980895B4
:10073000189A089583B18E6F83B908951898089513
:1007400082E083BF81E087BF12BE10921E0210922A
:100750001D02789408951F920F920FB60F920BB658
:100760000F9211242F933F934F935F936F937F9337
:100770008F939F93AF93BF93EF93FF9380911D024D
:1007800090911E02019690931E0280931D0220916B
:10079000A601822F809582BB80911D0290911E023E
:1007A0008851954109F072C08DB79EB70A970FB670
:1007B000F8949EBF0FBE8DBFEDB7FEB73196809106
:1007C000230290912402ADB7BEB712969C938E93EC
:1007D000119787E691E0938382838091A8018483B7
:1007E00015828091A70186831782208711860E9437
:1007F000E90510921E0210921D028091A6018F5FE2
:100800008093A6012DB73EB7265F3F4F0FB6F894F1
:100810003EBF0FBE2DBF8B3339F41092A6018091DD
:10082000A7018F5F8093A7018091A7018B3339F4D3
:100830001092A7018091A8018F5F8093A8018091F9
:10084000A801883139F41092A80180919A018F5F34
:1008500080939A0180919A018E3141F481E08093D6
:100860009A0180919B018F5F80939B0180919B01F6
:100870008C3061F481E080939B018091A90190917B
:10088000AA0101969093AA018093A901FF91EF918B
:10089000BF91AF919F918F917F916F915F914F9198
:1008A0003F912F910F900BBE0F900FBE0F901F9096
:1008B00018958DB79EB708970FB6F8949EBF0FBED8
:1008C0008DBFEDB7FEB7319688E791E0ADB7BEB703
:1008D00012969C938E93119780919A018283138232
:1008E00080919B01848315828091A9019091AA0136
:1008F000978386830E944A068DB79EB708960FB6E7
:10090000F8949EBF0FBE8DBF08958DB79EB7089710
:100910000FB6F8949EBF0FBE8DBFEDB7FEB73196F0
:100920008AE891E0ADB7BEB712969C938E9311976B
:100930008091A801828313828091A701848315820C
:100940008091A601868317820E944A068DB79EB7C2
:1009500008960FB6F8949EBF0FBE8DBF089587E42A
:1009600089B988E18AB908951F93182F873049F40F
:1009700060912302709124028CE991E00E94FA05B3
:1009800008C08A3019F48DE00E94B4045D9BFECF4C
:100990001CB980E090E01F910895EF92FF920F93B1
:1009A0001F93CF93DF937C018091AB019091AC01B9
:1009B000892B09F097C00DEA11E05F9BFECF5C9B8D
:1009C00003C02EEF3FEFA2C05B999EC09CB19D304B
:1009D00011F09A3069F48AE0F8018083B7010E942F
:1009E000B4048DEA91E09093AC018093AB017AC09E
:1009F000993009F490E2892F80528F3510F0903AA7
:100A000070F0F1E00C3F1F0711F487E004C0F8011B
:100A100091938F01892FB7010E94B404CECF9231F8
:100A200031F1933130F4933009F46EC0983029F6E7
:100A300009C0973109F44BC09F3721F0953109F077
:100A4000BCCF32C0F1E00D3A1F0709F008F4B5CF72
:100A500088E0B7010E94B40480E2B7010E94B404A8
:100A600088E0B7010E94B40401501040A6CF8DE089
:100A7000B7010E94B404CDEAD1E004C08991B70166
:100A80000E94B404C017D107C8F397CF88E0B7011C
:100A90000E94B40480E2B7010E94B40488E0B70168
:100AA0000E94B4040150104081E00D3A180709F08B
:100AB00068F783CF88E0B7010E94B40480E2B701F1
:100AC0000E94B40488E0B7010E94B4048E01E1E002
:100AD0000D3A1E0709F008F470CFE8018A918032C0
:100AE00049F76BCFE091AB01F091AC018191F093AC
:100AF000AC01E093AB018A3021F41092AC0110926A
:100B0000AB01282F30E002C02FEF3FEFC901DF918A
:100B1000CF911F910F91FF90EF900895FC018827CE
:100B20009927E89421912032E9F3293010F02E30F2
:100B3000C8F32B3241F02D3239F4689404C00E947E
:100B4000E105820F911D219120532A30C0F31EF43C
:100B5000909581959F4F08954DEF51E00E94BA0501
:100B60000895FB01DC018D91019080190110D9F3EA
:100B7000990B0895FA01A191B081009719F410978B
:100B8000E1F0CD01DC01CD010D90002011F4C00198
:100B900013C0FB012191222319F02015D9F7F3CFBF
:100BA000FB012191201519F41E92119606C02223F3
:100BB000C1F70D900020A1F7D001FA01A193B083F5
:100BC00008957AE0979F902D879F802D910D112495
:100BD0000895DF93CF93CDB7DEB79E01275F3F4FD8
:100BE0008D819E816F817885A9010E94B406CF9185
:100BF000DF910895EF92FF920F931F93CF93DF93AE
:100C00007C018B01DB0113968C9181FD03C0CFEF3A
:100C1000DFEF13C0C0E0D0E00BC0D8011896ED9113
:100C2000FC911997B8010995892B11F0CFEFDFEFEF
:100C3000F70181917F01882381F7CE01DF91CF9168
:100C40001F910F91FF90EF9008950F931F93CF93F3
:100C5000DF938C01E0911F02F0912002838180FFDD
:100C600011C0E80180911F02909120020E94D008DB
:100C70002FEF8F3F920731F089930A9799F72197C9
:100C8000188202C000E010E0C801DF91CF911F91EF
:100C90000F910895DF93CF93CDB7DEB7FE01359660
:100CA000619171918091210290912202AF010E9485
:100CB000B406CF91DF910895DF93CF93CDB7DEB720
:100CC000FE01359661917191A0912102B0912202AD
:100CD00013968C911397886013968C9380912102C0
:100CE00090912202AF010E94B406E0912102F0919E
:100CF00022022381277F2383CF91DF9108950F93D1
:100D00001F93CF93DF938C01E0912102F091220297
:100D1000838181FF21C0C0E0D0E00DC0E0912102BD
:100D2000F091220220853185BF01F9010995892BB7
:100D300011F0CFEFDFEFF80181918F01882371F778
:100D4000E0912102F0912202208531858AE0BF01E5
:100D5000F9010995892B11F0CFEFDFEFCE01DF917B
:100D6000CF911F910F9108952F923F924F925F92D2
:100D70006F927F928F929F92AF92BF92CF92DF92AB
:100D8000EF92FF920F931F93DF93CF93CDB7DEB710
:100D90002B970FB6F894DEBF0FBECDBF3C012B01E1
:100DA0005A01FC0117821682838181FD03C06FEF17
:100DB0007FEFC6C19AE0892E1E010894211C311CC8
:100DC000F3012381F20123FD859123FF81912F01FE
:100DD000882309F4B2C1853239F423FD859123FFBC
:100DE00081912F01853229F490E0B3010E9412090C
:100DF000E7CF982FFF24EE249924FFE1FF15D0F0D0
:100E00009B3269F09C3228F4903259F0933291F47D
:100E10000EC09D3249F0903369F441E024C052E0A5
:100E2000F52A84E0F82A28C098E0F92A25C0E0E1F4
:100E3000FE2A22C0F7FC29C0892F80538A3070F423
:100E4000F6FE05C0989C902C1124980E15C0E89CC5
:100E5000E02C1124E80EF0E2FF2A0EC09E3229F4A5
:100E6000F6FC6BC140E4F42A07C09C3619F450E844
:100E7000F52A02C0983649F4F20123FD959123FF2B
:100E800091912F01992309F0B8CF892F8554833090
:100E900018F08052833038F444E050E0A40EB51EC0
:100EA0005FE359830FC0933631F0933779F0933570
:100EB00009F056C020C0F5018081898342E050E0EE
:100EC000A40EB51E610101E010E012C0F501C08062
:100ED000D180F6FC03C06FEF7FEF02C0692D70E098
:100EE00042E050E0A40EB51EC6010E94C5088C0168
:100EF0005FE7F52214C0F501C080D180F6FC03C085
:100F00006FEF7FEF02C0692D70E042E050E0A40E69
:100F1000B51EC6010E94BA088C0150E8F52AF3FEFE
:100F200007C01AC080E290E0B3010E941209EA945F
:100F30008E2D90E008171907A8F30EC0F601F7FCF4
:100F40008591F7FE81916F0190E0B3010E94120933
:100F5000E110EA94015010400115110579F7EAC03B
:100F6000943611F0993669F5F7FE08C0F501208135
:100F700031814281538184E090E00AC0F501808193
:100F800091819C01442737FD4095542F82E090E0E9
:100F9000A80EB91E9FE6F92257FF09C0509540954B
:100FA000309521953F4F4F4F5F4FE0E8FE2ACA0131
:100FB000B901A1012AE030E00E943E09D82ED218E2
:100FC00040C0953729F41F2D1F7E2AE030E01DC058
:100FD0001F2D197F9F3661F0903720F4983509F066
:100FE000ACC00FC0903739F0983709F0A6C004C0E4
:100FF00028E030E00AC0106114FD146020E130E008
:1010000004C014FD166020E132E017FF08C0F501AE
:10101000608171818281938144E050E008C0F501D4
:1010200080819181BC0180E090E042E050E0A40E1C
:10103000B51EA1010E943E09D82ED2188FE7F82EC6
:10104000F122F6FE0BC05EEFF522D91438F4F4FE5F
:1010500007C0F2FC05C08FEEF82202C01D2D01C0B2
:10106000192DF4FE0DC0FE01ED0DF11D80818033C0
:1010700019F499EEF92208C01F5FF2FE05C003C003
:101080008F2D867809F01F5F0F2DF3FC14C0F0FE42
:101090000FC01E1510F09D2C0BC09D2C9E0C911A9C
:1010A0001E2D06C080E290E0B3010E9412091F5F6E
:1010B0001E15C0F304C01E1510F4E11A01C0EE2481
:1010C00004FF0FC080E390E0B3010E94120902FF09
:1010D0001DC001FD03C088E790E00EC088E590E0E8
:1010E0000BC0802F867891F001FF02C08BE201C017
:1010F00080E2F7FC8DE290E0B3010E94120906C085
:1011000080E390E0B3010E9412099A94D914C0F3CD
:10111000DA94F101ED0DF11D808190E0B3010E94A0
:101120001209DD20A9F706C080E290E0B3010E9419
:101130001209EA94EE20C1F743CEF301668177816C
:10114000CB012B960FB6F894DEBF0FBECDBFCF916B
:10115000DF911F910F91FF90EF90DF90CF90BF90A4
:10116000AF909F908F907F906F905F904F903F9047
:101170002F900895FC010590615070400110D8F740
:10118000809590958E0F9F1F0895FC0161507040CF
:1011900001900110D8F7809590958E0F9F1F0895AC
:1011A000CF93DF93EC014B8140FF1AC046FF0AC08A
:1011B0004F7B4B838E819F8101969F838E838A8193
:1011C000282F2BC042FF13C0E881F9818081282F8E
:1011D000332727FD30952115310529F440624B83D3
:1011E0002FEF3FEF1BC03196F983E88311C0EA85EA
:1011F000FB85CE0109959C0197FF0AC09B812F5F5B
:101200003F4F11F080E201C080E1892B8B83E8CF52
:101210008E819F8101969F838E8330E0C901DF918B
:10122000CF9108950F931F93CF93DF938C01EB0120
:101230008B8181FF1BC082FF0DC02E813F818C817D
:101240009D812817390764F4E881F9810193F983B6
:10125000E88306C0E885F985802F0995892B31F44C
:101260008E819F8101969F838E8302C00FEF1FEFB7
:10127000C801DF91CF911F910F910895FA01AA271C
:10128000283051F1203181F1E8946F936E7F6E5FC9
:101290007F4F8F4F9F4FAF4FB1E03ED0B4E03CD077
:1012A000670F781F891F9A1FA11D680F791F8A1F5A
:1012B000911DA11D6A0F711D811D911DA11D20D0C1
:1012C00009F468943F912AE0269F11243019305D7B
:1012D0003193DEF6CF010895462F4770405D41936C
:1012E000B3E00FD0C9F7F6CF462F4F70405D4A33B9
:1012F00018F0495D31FD4052419302D0A9F7EACF81
:10130000B4E0A6959795879577956795BA95C9F7AF
:1013100000976105710508959B01AC010A2E0694A2
:101320005795479537952795BA95C9F7620F731F5B
:0C133000841F951FA01D0895F894FFCFA6
:10133C0025640925640925630A00656E63006170E4
:10134C00616700686F726100666563686100476978
:10135C007261497A7100476972614465720050612B
:10136C007261003F00496D70546F6B004D454D002C
:10137C00203A0D090A004156523E000000000300BD
:10138C00000000B404CD04000000000002000000C6
:10139C0000220300000000253032643A253032640C
:1013AC003A253032640A0A00253032642C2025306C
:1013BC003264202C253034640A00253032643A25FE
:1013CC003032643A253032640A0001012A72696EA7
:0413DC00672A0A0072
:00000001FF
